:020000040800F2
:100000000036002031510008754A00081D510008D3
:100010001D5100081D5100081D510008000000007E
:100020000000000000000000000000005552000821
:100030001D510008000000000D52000859840008FE
:1000400011540008115400081154000811540008FC
:1000500011540008115400081154000811540008EC
:1000600011540008115400081154000811540008DC
:1000700011540008115400081154000811540008CC
:1000800011540008115400081154000811540008BC
:1000900011540008115400081154000811540008AC
:1000A000115400081154000811540008115400089C
:1000B000115400081154000811540008115400088C
:1000C000115400081154000811540008115400087C
:1000D000115400081154000811540008115400086C
:1000E000115400081154000811540008115400085C
:1000F000115400081154000811540008115400084C
:10010000115400081154000811540008115400083B
:10011000115400081154000811540008115400082B
:10012000115400081154000811540008115400081B
:10013000115400081154000811540008115400080B
:1001400011540008115400081154000811540008FB
:1001500011540008115400081154000811540008EB
:1001600011540008115400081154000811540008DB
:1001700011540008115400081154000811540008CB
:1001800011540008115400081154000811540008BB
:1001900011540008115400081154000811540008AB
:1001A000115400081154000811540008115400089B
:1001B000115400081154000811540008115400088B
:1001C000115400081154000811540008115400087B
:0801D00011540008115400084D
:1001D800FFFFFFFFFFFFFFFFFFFFFFFFFFFFFFFF27
:1001E800FFFFFFFFFFFFFFFFFFFFFFFFFFFFFFFF17
:0801F800FFFFFFFFFFFFFFFF07
:1002000090F800F06DE9024520F007016FF0000C56
:1002100010F0070491F820F040F049804FF00004FE
:100220006FF00700D1E9002391F840F000F10800D9
:1002300082FA4CF2A4FA8CF283FA4CF3A2FA8CF311
:100240004BBBD1E9022382FA4CF200F10800A4FA78
:100250008CF283FA4CF3A2FA8CF3E3B9D1E90423CC
:1002600082FA4CF200F10800A4FA8CF283FA4CF303
:10027000A2FA8CF37BB9D1E9062301F1200182FABD
:100280004CF200F10800A4FA8CF283FA4CF3A2FAC3
:100290008CF3002BC6D0002A04BF04301A4612BAD1
:1002A000B2FA82F2FDE8024500EBD2007047D1E9D4
:1002B000002304F00305C4F100004FEAC50514F063
:1002C000040F91F840F00CFA05F562EA05021CBF34
:1002D00063EA050362464FF00004A9E7000000004E
:1002E00001F0FF01102A2BDB10F0070F08D010F8E7
:1002F000013B013A8B422DD010F0070F42B3F6D1EB
:10030000F0B441EA012141EA014122F007047FF003
:1003100000070023F0E80256083C85EA010586EA5A
:10032000010685FA47F5A3FA87F586FA47F6A5FA96
:1003300087F68EB9EED1F0BC01F0FF0102F00702A2
:1003400032B110F8013B013A83EA010313B1F8D14D
:100350000020704701387047002D06BF354603382E
:10036000073815F0010F07D1013015F4807F02BF67
:10037000013015F4C03F0130F0BC0138704700BFB8
:100380004FF0FF0C1CEAD0521EBF1CEAD15392EA78
:100390000C0F93EA0C0F6FD01A4480EA010C400254
:1003A00018BF5FEA41211ED04FF0006343EA5010AE
:1003B00043EA5111A0FB01310CF00040B1F5000FF0
:1003C0003EBF490041EAD3715B0040EA010062F19F
:1003D0007F02FD2A1DD8B3F1004F40EBC25008BF89
:1003E00020F00100704790F0000F0CF0004C08BFA7
:1003F00049024CEA502040EA51207F3AC2BFD2F174
:10040000FF0340EAC250704740F400004FF0000381
:10041000013A5DDC12F1190FDCBF00F000407047BB
:10042000C2F10002410021FA02F1C2F1200200FAF9
:1004300002FC5FEA310040F1000053EA4C0308BFC0
:1004400020EADC70704792F0000F00F0004C02BF11
:10045000400010F4000F013AF9D040EA0C0093F08C
:10046000000F01F0004C02BF490011F4000F013BE6
:10047000F9D041EA0C018FE70CEAD15392EA0C0F54
:1004800018BF93EA0C0F0AD030F0004C18BF31F0BF
:10049000004CD8D180EA010000F00040704790F095
:1004A000000F17BF90F0004F084691F0000F91F039
:1004B000004F14D092EA0C0F01D142020FD193EAFF
:1004C0000C0F03D14B0218BF084608D180EA010087
:1004D00000F0004040F0FE4040F40000704740F063
:1004E000FE4040F44000704781F0004102E000BF50
:1004F00083F0004330B54FEA41044FEA430594EAE4
:10050000050F08BF90EA020F1FBF54EA000C55EA1E
:10051000020C7FEA645C7FEA655C00F0E2804FEAEF
:100520005454D4EB5555B8BF6D420CDD2C4480EAD1
:10053000020281EA030382EA000083EA010180EA01
:10054000020281EA0303362D88BF30BD11F0004F4F
:100550004FEA01314FF4801C4CEA113102D0404285
:1005600061EB410113F0004F4FEA03334CEA1333C0
:1005700002D0524263EB430394EA050F00F0A780D8
:10058000A4F10104D5F1200E0DDB02FA0EFC22FAD3
:1005900005F2801841F1000103FA0EF2801843FAC7
:1005A00005F359410EE0A5F120050EF1200E012AB8
:1005B00003FA0EFC28BF4CF0020C43FA05F3C018F6
:1005C00051EBE37101F0004507D54FF0000EDCF16F
:1005D000000C7EEB00006EEB0101B1F5801F1BD318
:1005E000B1F5001F0CD349085FEA30004FEA3C0C1C
:1005F00004F101044FEA445212F5800F80F09A8012
:10060000BCF1004F08BF5FEA500C50F1000041EB15
:10061000045141EA050130BD5FEA4C0C404141EB19
:100620000101013C28BFB1F5801FE9D291F0000F14
:1006300004BF01460020B1FA81F308BF2033A3F1C3
:100640000B03B3F120020CDA0C3208DD02F1140CBA
:10065000C2F10C0201FA0CF021FA02F10CE002F1F5
:100660001402D8BFC2F1200C01FA02F120FA0CFCEE
:10067000DCBF41EA0C019040E41AA2BF01EB045137
:10068000294330BD6FEA04041F3C1CDA0C340EDC35
:1006900004F11404C4F1200220FA04F001FA02F378
:1006A00040EA030021FA04F345EA030130BDC4F136
:1006B0000C04C4F1200220FA02F001FA04F340EA2B
:1006C0000300294630BD21FA04F0294630BD94F0DC
:1006D000000F83F4801306BF81F480110134013DC3
:1006E0004EE77FEA645C18BF7FEA655C29D094EA34
:1006F000050F08BF90EA020F05D054EA000C04BFB2
:100700001946104630BD91EA030F1EBF002100209C
:1007100030BD5FEA545C05D14000494128BF41F03B
:10072000004130BD14F580043CBF01F5801130BD9F
:1007300001F0004545F0FE4141F470014FF000002A
:1007400030BD7FEA645C1ABF194610467FEA655CDB
:100750001CBF0B46024650EA013406BF52EA03357D
:1007600091EA030F41F4002130BD00BF90F0000F6B
:1007700004BF0021704730B54FF4806404F13204A7
:100780004FF000054FF0000150E700BF90F0000F60
:1007900004BF0021704730B54FF4806404F1320487
:1007A00010F0004548BF40424FF000013EE700BF57
:1007B00042004FEAE2014FEA31014FEA02701FBFE7
:1007C00012F07F4393F07F4F81F06051704732F019
:1007D0007F4208BF704793F07F4F04BF41F4002170
:1007E000704730B54FF4607401F0004521F00041CE
:1007F0001CE700BF50EA010208BF704730B54FF058
:1008000000050AE050EA010208BF704730B511F058
:10081000004502D5404261EB41014FF4806404F190
:1008200032045FEA915C3FF4D8AE4FF003025FEA16
:10083000DC0C18BF03325FEADC0C18BF033202EB9A
:10084000DC02C2F1200300FA03FC20FA02F001FAF4
:1008500003FE40EA0E0021FA02F11444BDE600BF97
:1008600070B54FF0FF0C4CF4E06C1CEA11541DBF46
:100870001CEA135594EA0C0F95EA0C0F00F0DEF811
:100880002C4481EA030621EA4C5123EA4C5350EAF6
:10089000013518BF52EA033541F4801143F4801347
:1008A00038D0A0FB02CE4FF00005E1FB02E506F0D8
:1008B0000042E0FB03E54FF00006E1FB03569CF02D
:1008C000000F18BF4EF0010EA4F1FF04B6F5007F33
:1008D00064F5407404D25FEA4E0E6D4146EB0606A5
:1008E00042EAC62141EA55514FEAC52040EA5E502E
:1008F0004FEACE2EB4F1FD0C88BFBCF5E06F1ED8D8
:10090000BEF1004F08BF5FEA500E50F1000041EB0E
:10091000045170BD06F0004646EA010140EA0200BB
:1009200081EA0301B4EB5C04C2BFD4EB0C0541EADD
:10093000045170BD41F480114FF0000E013C00F3F2
:10094000AB8014F1360FDEBF002001F0004170BD16
:10095000C4F10004203C35DA0C341BDC04F114042F
:10096000C4F1200500FA05F320FA04F001FA05F2BB
:1009700040EA020001F0004221F0004110EBD37088
:1009800021FA04F642EB06015EEA430E08BF20EAB4
:10099000D37070BDC4F10C04C4F1200500FA04F357
:1009A00020FA05F001FA04F240EA020001F00041E9
:1009B00010EBD37041F100015EEA430E08BF20EA5C
:1009C000D37070BDC4F1200500FA05F24EEA020EA4
:1009D00020FA04F301FA05F243EA020321FA04F0D3
:1009E00001F0004121FA04F220EA020000EBD3708A
:1009F0005EEA430E08BF20EAD37070BD94F0000F8A
:100A00000FD101F00046400041EB010111F4801FBD
:100A100008BF013CF7D041EA060195F0000F18BF6E
:100A2000704703F00046520043EB030313F4801FAA
:100A300008BF013DF7D043EA0603704794EA0C0F64
:100A40000CEA135518BF95EA0C0F0CD050EA41067A
:100A500018BF52EA4306D1D181EA030101F00041F7
:100A60004FF0000070BD50EA410606BF104619461F
:100A700052EA430619D094EA0C0F02D150EA01362B
:100A800013D195EA0C0F05D152EA03361CBF10466C
:100A900019460AD181EA030101F0004141F0FE410B
:100AA00041F470014FF0000070BD41F0FE4141F48F
:100AB000780170BD70B54FF0FF0C4CF4E06C1CEA8F
:100AC00011541DBF1CEA135594EA0C0F95EA0C0F44
:100AD00000F0A7F8A4EB050481EA030E52EA0335FF
:100AE0004FEA013100F088804FEA03334FF0805520
:100AF00045EA131343EA12634FEA022245EA11154D
:100B000045EA10654FEA00260EF000419D4208BFFD
:100B1000964244F1FD0404F5407402D25B084FEAAA
:100B20003202B61A65EB03055B084FEA32024FF456
:100B300080104FF4002CB6EB020E75EB030E22BFB3
:100B4000B61A754640EA0C005B084FEA3202B6EB73
:100B5000020E75EB030E22BFB61A754640EA5C0022
:100B60005B084FEA3202B6EB020E75EB030E22BFB2
:100B7000B61A754640EA9C005B084FEA3202B6EBB3
:100B8000020E75EB030E22BFB61A754640EADC0072
:100B900055EA060E18D04FEA051545EA16754FEAD4
:100BA00006164FEAC30343EA52734FEAC2025FEAF2
:100BB0001C1CC0D111F4801F0BD141EA00014FF081
:100BC00000004FF0004CB6E711F4801F04BF014352
:100BD0000020B4F1FD0C88BFBCF5E06F3FF6AFAE6E
:100BE000B5EB030C04BFB6EB020C5FEA500C50F1FE
:100BF000000041EB045170BD0EF0004E4EEA113181
:100C000014EB5C04C2BFD4EB0C0541EA045170BD87
:100C100041F480114FF0000E013C90E645EA060ECB
:100C20008DE60CEA135594EA0C0F08BF95EA0C0FF9
:100C30003FF43BAF94EA0C0F0AD150EA01347FF441
:100C400034AF95EA0C0F7FF425AF104619462CE718
:100C500095EA0C0F06D152EA03353FF4FDAE10467B
:100C6000194622E750EA410618BF52EA43067FF4CC
:100C7000C5AE50EA41047FF40DAF52EA43057FF45C
:100C8000EBAE12E780F0004002E000BF81F00041CF
:100C900042001FBF5FEA410392EA030F7FEA226C22
:100CA0007FEA236C6AD04FEA1262D2EB1363C1BFB2
:100CB000D218414048404140B8BF5B42192B88BF21
:100CC000704710F0004F40F4000020F07F4018BF44
:100CD000404211F0004F41F4000121F07F4118BF64
:100CE000494292EA030F3FD0A2F1010241FA03FC0C
:100CF00010EB0C00C3F1200301FA03F100F00043F4
:100D000002D5494260EB4000B0F5000F13D3B0F1BB
:100D1000807F06D340084FEA310102F10102FE2A2A
:100D200051D2B1F1004F40EBC25008BF20F001009A
:100D300040EA03007047490040EB0000013A28BF39
:100D4000B0F5000FEDD2B0FA80FCACF1080CB2EBBC
:100D50000C0200FA0CF0AABF00EBC250524218433A
:100D6000BCBFD0401843704792F0000F81F40001DF
:100D700006BF80F400000132013BB5E74FEA4103B2
:100D80007FEA226C18BF7FEA236C21D092EA030F1E
:100D900004D092F0000F08BF0846704790EA010F98
:100DA0001CBF0020704712F07F4F04D1400028BFC5
:100DB00040F00040704712F100723CBF00F50000A7
:100DC000704700F0004343F0FE4040F400007047DD
:100DD0007FEA226216BF08467FEA23630146420289
:100DE00006BF5FEA412390EA010F40F4800070479C
:100DF0004FF0000304E000BF10F0004348BF404242
:100E00005FEA000C08BF704743F0964301464FF07D
:100E100000001CE050EA010208BF70474FF00003D9
:100E20000AE000BF50EA010208BF704711F000431A
:100E300002D5404261EB41015FEA010C02BF8446EA
:100E40000146002043F0B64308BFA3F18053A3F549
:100E50000003BCFA8CF2083AA3EBC25310DB01FA90
:100E600002FC634400FA02FCC2F12002BCF1004F14
:100E700020FA02F243EB020008BF20F001007047A5
:100E800002F1200201FA02FCC2F1200250EA4C00F9
:100E900021FA02F243EB020008BF20EADC7070473F
:100EA0004FEA4002B2F1FE4F0FD34FF09E03B3EB77
:100EB00012620DD94FEA002343F0004310F0004FB7
:100EC00023FA02F018BF404270474FF0000070470D
:100ED00012F1610F01D1420205D110F0004008BFAC
:100EE0006FF0004070474FF00000704753B94AB9A7
:100EF000002908BF00281CBF4FF0FF314FF0FF3022
:100F000000F00CB8ADF1080C6DE904CE00F068F902
:100F1000DDF804E0DDE9022304B07047704700BF4C
:100F20004FF0FF3C06E000BF4FF0010C02E000BFB5
:100F30004FF0010C4DF804CD4FEA410C7FEA6C5C98
:100F40004FEA430C18BF7FEA6C5C1BD001B050EA3B
:100F5000410C0CBF52EA430C91EA030F02BF90EA26
:100F6000020F0020704710F1000F91EA030F58BFE5
:100F7000994208BF90422CBFD8176FEAE37040F047
:100F8000010070474FEA410C7FEA6C5C02D150EAE5
:100F9000013C07D14FEA430C7FEA6C5CD6D152EAA0
:100FA000033CD3D05DF8040B704700BF8446104665
:100FB00062468C461946634600E000BF01B5FFF764
:100FC000B7FF002848BF10F1000F01BD4DF808ED34
:100FD000FFF7F4FF0CBF012000205DF808FB00BF05
:100FE0004DF808EDFFF7EAFF34BF012000205DF85F
:100FF00008FB00BF4DF808EDFFF7E0FF94BF0120AC
:1010000000205DF808FB00BF4DF808EDFFF7CEFFAC
:1010100094BF012000205DF808FB00BF4DF808EDEB
:10102000FFF7C4FF34BF012000205DF808FB00BFBC
:10103000844641EA000313F003036DD1403A41D3E3
:1010400051F8043B40F8043B51F8043B40F8043BA2
:1010500051F8043B40F8043B51F8043B40F8043B92
:1010600051F8043B40F8043B51F8043B40F8043B82
:1010700051F8043B40F8043B51F8043B40F8043B72
:1010800051F8043B40F8043B51F8043B40F8043B62
:1010900051F8043B40F8043B51F8043B40F8043B52
:1010A00051F8043B40F8043B51F8043B40F8043B42
:1010B00051F8043B40F8043B51F8043B40F8043B32
:1010C000403ABDD2303211D351F8043B40F8043BD2
:1010D00051F8043B40F8043B51F8043B40F8043B12
:1010E00051F8043B40F8043B103AEDD20C3205D3E2
:1010F00051F8043B40F8043B043AF9D2043208D0DA
:10110000D2071CBF11F8013B00F8013B01D30B884B
:1011100003806046704700BF082A13D38B078DD029
:1011200010F003038AD0C3F10403D21ADB071CBFFB
:1011300011F8013B00F8013B80D331F8023B20F865
:10114000023B7BE7043AD9D3013A11F8013B00F89E
:10115000013BF9D20B7803704B7843708B78837026
:10116000604670474FEA410C7FEA6C5C02D150EA5E
:10117000013C0AD14FEA430C7FEA6C5C02D152EA8F
:10118000033C02D14FF0000070474FF00100704760
:101190004FEA410212F5001215D211D56FF478739F
:1011A000B3EB625212D94FEAC12343F0004343EA42
:1011B000505311F0004F23FA02F018BF404270471D
:1011C0004FF00000704750EA013005D111F00040A7
:1011D00008BF6FF0004070474FF00000704700BF3D
:1011E0002DE9F04786468C460846089E154674460B
:1011F0001946002B40F0C2808542B2FA82F245D9EE
:101200004AB1C2F1200300FA02FC2EFA03F3954022
:1012100043EA0C0C94404FEA154EA8B2BCFBFEF812
:10122000230C0EFB18CC08FB00F943EA0C4399454C
:1012300028D9EB1808F1FF3704D2994502D9A8F153
:1012400002072B44A3EB0903A4B2B3FBFEFC0EFB85
:101250001C330CFB00F044EA0344A04214D92C19BF
:101260000CF1FF3304D2A04202D9ACF102032C44AA
:10127000241A43EA07401EB1D4400023346073604F
:10128000BDE8F0874746DDE76346F1E792BB431BC5
:1012900001214FEA154EAFB2B3FBFEFC200C0EFB52
:1012A0001C330CFB07F840EA0343984562D9EB185E
:1012B0000CF1FF3004D2984502D9ACF102002B4466
:1012C000A3EB0803A4B2B3FBFEFC0EFB1C330CFB28
:1012D00007F744EA0344A7424ED92C190CF1FF3317
:1012E00004D2A74202D9ACF102032C44E41B43EA26
:1012F0000040C0E7C2F1200320FA03F1954090407E
:101300002EFA03F303434FEA154EAFB2B1FBFEFCD6
:101310000EFB1C10190C0CFB07F841EA0041884534
:1013200004FA02F422D969180CF1FF3004D288457E
:1013300002D9ACF102002944A1EB08019BB2B1FB38
:10134000FEFC0EFB1C110CFB07F743EA01439F4216
:101350000ED9EB180CF1FF3104D29F4202D9ACF147
:1013600002012B44DB1B41EA004192E76046E3E7C0
:101370006146F7E76046A3E76346B7E7834206D9CD
:1013800016B9002108467BE7C6E900E0F9E7B3FAA1
:1013900083F78FB9834201D3724508D8BEEB0204AC
:1013A00060EB030301209C461EB9002168E7384624
:1013B000FAE7C6E9004CF8E7C7F1200CBB4022FA77
:1013C0000CF41C432EFA0CF120FA0CF3B840014344
:1013D0004FEA14490EFA07F5B3FBF9F81FFA84FE39
:1013E00009FB18300B0C08FB0EFA43EA00439A4540
:1013F00002FA07F240D9E31808F1FF3004D29A4507
:1014000002D9A8F102002344A3EB0A0389B2B3FB7B
:10141000F9F809FB183308FB0EFE41EA03418E453B
:101420002CD9611808F1FF3304D28E4502D9A8F1F6
:101430000203214443EA0040A0FB0298A1EB0E0105
:101440004145CE46434602D306D14D4504D2B9EBC1
:10145000020E68EB04030138002EA6D0B5EB0E0295
:1014600061EB030101FA0CFC22FA07F34CEA0303D7
:10147000F940C6E9003198E74046C5E74346D9E759
:101480002DE9F04F016C9FB016461F46CDE9046769
:101490002B9D039049B1426C4A600123934004465E
:1014A0008B600CF0B7FB00232364B7F10009B4BFD5
:1014B000012300232B60764BBCBF29F00049CDF8F7
:1014C000149033EA090300F0AA80DDE90434002215
:1014D000184621460023CDE90801FFF777FD804635
:1014E00068B12A9A012313602C9B13B12C9A694B83
:1014F0001360694B0A930A981FB0BDE8F08F1CABCC
:1015000001931DAB00930398DDE908230CF0B6FEB0
:101510005FEA1955824640F09880DDE91C85454414
:1015200005F23243202B40F38383C3F1400309FAD1
:1015300003F905F2124326FA03F349EA0300FFF721
:1015400015F90123013DA1F1F8711193534B0022CC
:10155000FEF7CEFF48A3D3E90023FFF781F948A3A4
:10156000D3E90023FEF7C6FF064628460F46FFF7DD
:101570000DF945A3D3E90023FFF772F902460B46A4
:1015800030463946FEF7B6FF06460F46FFF700FE27
:1015900000228346002330463946FFF721FD00280C
:1015A00040F01A83A8EB0508BBF1160F08F1FF34D1
:1015B00000F28B813A4D05EBCB05D5E90023DDE93F
:1015C0000801FFF70DFD002870D00023002C0BF15F
:1015D000FF3B1093C0F27E8100230B93BBF1000F01
:1015E0006ADA0B9BA3EB0B030B93CBF10003CDE962
:1015F0000EB3289B092B4FF0000B65D8052B40F349
:101600001C83043B28930025289B023B032B00F2FC
:101610002386DFE813F060045D04540438042A9A3A
:10162000C9F3130942F20F7359EA060913601CD17A
:101630002C9B002B00F02B861A4B0A9308332C9A14
:101640000A9813601FB0BDE8F08FDDE90812C2F3FD
:101650001303084643F07F51CDF84480A5F2FF35CF
:10166000DDF8708041F4401170E72C9B002B40F0B6
:10167000E7830D4B0A933EE761436F63A787D23F31
:10168000B3C8608B288AC63FFB799F501344D33F71
:101690000000F07F05280108042801080000F83F39
:1016A000C02001082828010834280108B8F1000FDB
:1016B00040F3608410900B9000230F93289BCDF88B
:1016C00038B0092B5C4499D90023CDE92833012592
:1016D0004FF0FF330C950693039B00215964069B42
:1016E000189303980CF070FA0A90002800F0BD855A
:1016F000039B0A9A1A64069B0E2B00F21581002D9B
:1017000000F012810E9A002A40F33B84B24D02F0A1
:101710000F0305EBC303D3E9008913461511DA055E
:1017200040F1FA83AD4BDDE90801D3E90823FFF767
:10173000C1F9CDE9120105F00F0503277DB1A74ED0
:10174000EB0708D540464946D6E90023FFF788F85D
:101750000137804689466D1006F10806F0D14246F1
:101760004B46DDE91201FFF7A5F980468946109B3B
:1017700043B19B4B002240464946FFF731FC00280D
:1017800040F0F1843846FFF701F842464B46FFF738
:1017900067F8944B0022FEF7ADFE069B0646A1F1CA
:1017A0005077002B00F0A9800E9B1993069B129393
:1017B0000A9B894D49464046CDE914675E1CFFF7F8
:1017C000E7FC129905EBC10353E902120746CDE984
:1017D0001612FEF7DBFF02460B4640464946FEF76F
:1017E00087FE89460C993037DDE916238046FFB223
:1017F000002900F053847C490020FFF75BF9DDE904
:101800001423FEF775FE0A9D02460B46CDE914230C
:101810002F7042464B46FFF701FC002840F09784AA
:10182000CDE91AB4CDF858A0129DDDE914AB00271C
:101830002AE00137AF4280F2DE846C4B50465946B5
:101840000022FFF70DF8694B002282468B46404686
:101850004946FFF705F889468046FFF799FC04469C
:10186000FEF794FF02460B4640464946FEF740FE0F
:10187000303406F8014B52465B4680468946FFF7F6
:10188000AFFB002840F0B48442464B465449002048
:10189000FEF72EFE52465B46FFF7A2FB0028C8D09B
:1018A000199BDDF858A00A9A374603F1010802E0B7
:1018B000974200F07C843E4617F8013D392BF7D063
:1018C0000133DBB23B70454675E10123002C1093D8
:1018D000BFF682AEC8F101030B9300247EE63846C2
:1018E000FEF754FF42464B46FEF7BAFF3D4B00223F
:1018F000FEF700FE0646A1F150773D4B40464946B3
:101900000022FEF7F5FD32463B4680468946FFF74A
:1019100085FB002840F05A8440464946324607F18C
:101920000043FFF75DFB28BB1D9B002BC0F292809C
:101930000E9A0E2A00F38E80274D0E9B05EBC305F1
:10194000D5E90034CDE90434299B002B19DA069B34
:10195000002B16DC0ED1264B0022DDE90401FEF738
:101960007FFF02460B46DDE90801FFF743FB002835
:1019700000F02C844FF000090A9E4F46299BDD435E
:1019800025E2DDE90445DDE9088922462B4640468B
:101990004946FFF78FF8FFF7FBFB0646FEF7F6FE1A
:1019A00022462B46FEF75CFF0A9F0B46024649463D
:1019B0004046FEF79DFD06F1300307F8013B069B0C
:1019C000012B00F012830125CDF818A09946DDE91E
:1019D00004ABA8462CE000BFC020010898200108F5
:1019E0000000F03F00001C400000E03F00002440E9
:1019F0000000144052465B4620462946FFF75AF83D
:101A0000FFF7C6FB0646FEF7C1FE52465B46FEF7F1
:101A100027FF08F101080B46024629462046FEF73B
:101A200067FD06F13003C84507F8013B00F0DB8293
:101A3000B94B0022FEF714FF0022002304460D4696
:101A4000FFF7C4FA0028D5D00E9DDDF818A00135A7
:101A50003E46B0E00C9A002A40F0D28000230F9D51
:101A60000B9E0C931F4656B1002C08DDA6420B9A24
:101A70003346A8BF2346D21A0B92F61AE41A0F9BDC
:101A800053B10C9B13B1002D40F0E88251460F9AE0
:101A900003980CF04FFA8246039801210CF066F986
:101AA0008146BBF1000F40F0B681289B012B40F32B
:101AB000CC810120204410F01F0000F09A80C0F17A
:101AC0002003042B40F3DA810B9BC0F11C0003447C
:101AD0000B93064404440B9B002B05DD51460398F1
:101AE0001A460CF081FA8246002C05DD494603981F
:101AF00022460CF079FA8146109B002B40F0708151
:101B0000069B002B40F348810C9B002B40F0A480E7
:101B10000E9D0135DDF82880069CDDF80CB001260D
:101B200007E0514600230A2258460CF07DF80136A2
:101B30008246494650460BF061FEA64200F1300352
:101B400008F8013BEDDB069A002AC8BF16460A9A40
:101B5000D8BF012602EB060B002451460122039850
:101B600004930CF041FA494682460CF0B5FA00287D
:101B700040F3E3810A9A02E05A4500F0E9815E46AB
:101B80000BF1FF3B16F8013C392BF5D001338BF8F4
:101B90000030DDF80C80494640460CF03BF857B168
:101BA0002CB1BC4203D0214640460CF033F80398D8
:101BB00039460CF02FF8039851460CF02BF800230F
:101BC00033702A9B1D602C9B002B3FF494AC0A9829
:101BD0001E601FB0BDE8F08F5846FEF7D7FD3246B5
:101BE0003B46FFF7F3F900287FF4DCAC0BF1FF3B39
:101BF000D8E41C230B9A1A440B921E441C446AE737
:101C0000289A012A40F3A981069A0F9B551EAB42E0
:101C1000C0F26B81002AA3EB050580F2DD820B9BED
:101C2000069A9E1A039801210CF0A0F807461AE7BD
:101C3000C3F1200306FA03F081E40125E4E4394608
:101C4000002303980A220BF0EFFF189B002B074696
:101C500040F3EF820E950693002E00F33F81BBF117
:101C6000000F40F0DF81B8460A9E069C731E1C449C
:101C7000049B0C9403F00103039C0F9349465046C8
:101C80000BF0BCFD3946834650460CF025FA42461F
:101C90004946054620460CF03FFAC26801460BF162
:101CA0003003002A3AD1089050460B930CF014FAF6
:101CB0000899069020460BF0ADFF069A0B9B002A70
:101CC0005AD1289A1AB90F9A002A00F09A82002D48
:101CD00045DB0C9AB346B2420BF8013B00F0B981E8
:101CE000514600230A2220460BF09EFF47458246BC
:101CF00039464FF000034FF00A02204636D00BF071
:101D000093FF4146074600230A2220460BF08CFF32
:101D10005E468046B2E700BF000024400398069369
:101D20000BF078FF002D069B06DB049A289902F041
:101D300001020D432A432AD15146012203980493FC
:101D40000CF052F9494682460CF0C6F90028049B73
:101D500040F3E880392B00F02F820BF131030E9D08
:101D600006F8013B3C460135474612E70BF05CFFA5
:101D70005E460746804681E7002DC0F27D822899A5
:101D80000D430F990D4300F07782002AA1DD392B16
:101D900000F012820133E2E7289B022B7FF7B4AEFA
:101DA000069B002B40F01D814946052203980BF04D
:101DB0003BFF0146814650460CF08EF9002840F367
:101DC00010810A9E0E9D312306F8013B01350398D0
:101DD000494601350BF01EFF002F7FF4E8AEEAE61E
:101DE000494650460CF078F90028BFF689AE5146B6
:101DF000002303980A220BF017FF0E9B5D1E0C9B1D
:101E00008246002B7FF41BAF189B002B40F3FF8111
:101E10000E9D06937EE601465A4603980CF08AF81A
:101E2000289B012B81466CDD4FF0000BD9F8103058
:101E300009EB830318690BF047FFC0F1200039E676
:101E4000924B0A930333FFF7FABB049B002B7FF4FA
:101E500030AEDDE90412C2F31303002B7FF429AE88
:101E60008B4B134023B10B9B01330B9301340123A4
:101E7000BBF1000F40F0AE819B461AE63FF42BAE5B
:101E8000C0F13C03B6E601230C93299B0E9A134440
:101E900018930133012B1E460693B8BF0126172E57
:101EA00040F3D581012204235B0003F11400B0420A
:101EB000114602F10102F7D9039B596411E4012391
:101EC0000C93299B002B33DD189306931E46E6E7FF
:101ED00000230C93D9E700230C93F2E739460398CB
:101EE00032460CF081F80746B9E60F9B069A0F952B
:101EF000EB1A9B440B9B1E46134414440B93002582
:101F000090E6049B002B8FD1DDE90401C1F313039C
:101F10000A46002B88D1A3E7DDE908230227CDE993
:101F200012230BE47FF41BAFDA077FF518AF11E73C
:101F3000012329930693FFF7CFBB03D1049BDB0753
:101F40003FF518AE5E461BF8013D302BFAD020E677
:101F50000A9A3123013513701BE6119A002A00F00A
:101F6000F98003F233430B9A0F9D16461A441C4422
:101F70000B9257E6C8F1010304460B931090FFF74C
:101F80009BBB00F0EB800E9B424D5E4206F00F03C0
:101F900005EBC303D3E90023DDE90801FEF760FC8C
:101FA0003511CDE9120100F04D813B4E002302278F
:101FB00080468946E80709D5D6E9002340464946C8
:101FC000FEF74EFC01378046894601236D1006F16D
:101FD0000806EFD1002B7FF4CAABDDE91289FFF7C9
:101FE000C6BB0A9ECAE4DDF818A00E9D02460B4649
:101FF000FEF780FA02460B46CDE906230135DDE9FE
:102000000423A846FFF70AF840B9DDE90423DDE917
:102010000601FEF7DBFF18B1F10701D50A9A4AE481
:102020003E46C8E5796803980BF0CEFD05460028CA
:1020300000F026813B6902339A0007F10C010C3055
:10204000FEF7F6FF0398294601220BF0CDFF8046EC
:102050000AE60E9D3C46013547467EE5DDF80C80DC
:1020600039462A4640460BF065FF52460146074670
:1020700040460BF0A9FE5146824640460BF0CAFD91
:102080000F9B5B1B0F933FF407ADFFE4342801085F
:102090000000F07FC020010898200108DDE914014C
:1020A000FEF7DEFB0A9B1F70129B012BCDE90C0192
:1020B00000F0C680129F0A9BCDF844B01F447C4BB1
:1020C000002240464946FEF7CBFB89468046FFF793
:1020D0005FF88346FEF75AFB0BF1300B02460B46C6
:1020E00040464946FEF704FA06F801BBB74280466F
:1020F0008946E4D1DDF844B06E4B0022DDE90C01E5
:10210000FEF7F8F902460B4640464946FEF786FFC1
:10211000002867D1DDE90C2366490020FEF7E8F9C5
:1021200002460B4640464946FEF75AFF48B91D9BFA
:10213000002BFFF693AC0E9B0E2B3FF78FACFFF7F7
:10214000FCBB3E46013F16F8013C302BF9D0199DEF
:10215000013530E51C9BC3F1360304E7DDE908894E
:102160000227FFF704BB069B002B3FF4B8AB189B7C
:10217000002B7FF7D9AB0E9A1293013A4C4B199270
:10218000404600224946FEF76BFB80468946781C94
:10219000FEF7FCFA42464B46FEF762FB464B002236
:1021A000FEF7A8F90646A1F15077FFF701BB08F149
:1021B00001083123FFF786BB0E9D0A9AB3463923E7
:1021C0003C460BF8013B01354746D8E44FF0000987
:1021D0004F46F6E59B4629E60B9B1E4613441444E6
:1021E0000B931FE5199B0A9A03F10108FFF763BBE4
:1021F000DDF858A0ABE7DDE91AB4DDF858A0FFF729
:1022000093BB392BD8D0002D3FF7A7ADA7E5289B6E
:10221000022B0ADC189B069349460E9D0BF0EEFA42
:102220000A9A00F1300313708DE4189B06930E9503
:10223000B6E5289B022BF8DC189B0E9506930BE560
:10224000374659E7DDE912890227FFF790BA039B69
:1022500000215964FFF745BA039B00255D642946B8
:1022600018460BF0B1FC0A90A8B9144B1448002290
:102270004FF4D5710CF01CF9002A7FF770AD5BE5C7
:102280000E4B0F482A4640F2EA210CF011F90D4B93
:102290000A93FFF730B9039B0A9A1A644FF0FF3391
:1022A0000122299518930C920693FFF73DBB00BFBE
:1022B000000024400000E03F00001C4038280108D6
:1022C0004C28010828280108014807F0FBB900BF85
:1022D000880E002008B5054C206800F057FB00214F
:1022E00042F2107008F0BAFAF6E700BF080F0020BB
:1022F00008B5054C20680DF091FF002142F21070E6
:1023000008F0ACFAF6E700BF0C0F00202DE9F04F03
:1023100089B00024654B664D66490293032223462B
:102320002046CDE900440DF0F4FE284600F00CF9FB
:10233000034660B9604A5F490090CDE9010201227D
:102340000DF0E7FE4FF0FF3009B0BDE8F08F5B4FB6
:102350005B4EE968DFF86C91DFF86C81DFF86CA107
:10236000DFF86CB1384600F09DFC3760594F2946C4
:10237000384600F083FAC9F80070574F29463846AE
:1023800000F0EAFAC8F80070544F2946384600F0C9
:1023900087FB534A5349544BCAF80020C2E900173F
:1023A000524A31681A605248524BCBF80070C2E969
:1023B0000001C2E90244D9F80010D8F800204E4FBD
:1023C00018460DF011FF4B4B3B604C4B32681846E2
:1023D00029460DF0EBFE4A4A484B3068136000F086
:1023E00021FC40B9474B02930023CDE9003331492A
:1023F00001221846A4E7D9F8000000F0E3F900280C
:10240000F0D0D8F8000000F041FA0028EAD0DBF85C
:1024100000000DF080FF0028E4D0DAF800103868E2
:102420000DF0EFFE304B386819680DF0EAFE3649C2
:10243000364807F0B7F8364A306823464FF48071C3
:1024400000F092FB002600270525CDE90667CDE9BF
:102450000245CDE900442F4B2F4904944FF400620C
:102460002E4807F089FA2E492C4807F09FF92D4B8A
:102470002D490094CDE90667CDE90354CDE9014427
:102480004FF48062294807F077FA2949274807F076
:102490008DF9284B07490094CDE901432046234696
:1024A00003220DF036FE20464EE700BF90290108BA
:1024B000280F002044200108A4290108000F002053
:1024C000240F0020200F00201C0F0020140F0020DC
:1024D000180F0020F40E0020E80E0020DC0E002073
:1024E000D40E002090210108100F0020C40E0020FF
:1024F000D8210108A80E00200C0F0020980E002003
:10250000080F0020C729010839250008880E00207F
:10251000C9220008F1220008C01700207809002015
:10252000E8290108D522000880130020B8080020FF
:10253000F6290108072A0108024B186808B100F0C3
:1025400001BB7047180F00204A4A4B494B4BF0B56E
:1025500042604B4A82604B4AC260036000F1140241
:10256000044603C985B082E8030018460FF036F927
:1025700068B9454B02930023CDE90033434901225A
:1025800018460DF0D5FD0025284605B0F0BD606861
:102590000FF024F90028ECD0A0680FF01FF90028F4
:1025A000E7D0E0680FF01AF90028E2D060690FF078
:1025B00015F905460028DCD06069217E638B03F0A5
:1025C0003002302AD0E9016ED0F810C00ED1304967
:1025D000304A314840F2D3330EF002F82F480DF064
:1025E000FFFF40F2D3312B480DF0F1FF03F006025C
:1025F000042A09D12A49274A274840F2DA330DF044
:10260000EFFF40F2DA31EEE736680127DA0707FA22
:1026100001F754BF43F4B01383F4D013374223F4CB
:1026200080120CD11F491B4A1B4840F2ED330DF0BC
:10263000D7FF1D480DF0D4FF40F2ED31D3E7DCF8B1
:102640000060DB074CBF3E43BE43CCF80060DEF8C1
:102650000030984758B1154B029300230390CDE901
:1026600000330A49012218460DF062FD8BE7012371
:10267000237789E7F01B010878200108041C010872
:10268000181C01082C1C01082C2A01082C20010808
:102690008B2A01085A2A0108C42A0108E12A0108E4
:1026A0001E2B0108512B01088F2B0108A12B0108BB
:1026B00010B50346007F0A4620B35869197E0469A5
:1026C000012303FA01F143681B6819420ED10F4937
:1026D0000F4A10484FF4CB630DF082FF0E480DF007
:1026E0007FFF0B484FF4CB610DF071FF2368194257
:1026F00018BF82F0010232B18368DB689847B0FAF4
:1027000080F0400910BD83681B69F7E7512B010871
:102710005A2A0108C42A01088F2B0108F0B5057A4E
:102720008DB00E4665B3234A118892788DF8162035
:102730004268ADF81410106805ABA8228DF813207C
:1027400009930DF1130203230692002401220A9338
:10275000072307928DF820408DF82C3083680222E1
:102760009F6806A95C23B84770B1134B0390CDE96D
:102770000143124900942346022220460DF0F0FC4A
:10278000002528460DB0F0BD9DF815309DF81620A7
:102790009DF814001B0243EA02431843FEF72CFB8A
:1027A0004FF06651FDF7ECFD0549FDF7E9FD30609E
:1027B000E7E700BF90200108DB2B01081C2001087F
:1027C0000000C842F0B58FB04268002301240646DD
:1027D0008DF81A3010688DF828300F220DF11A0389
:1027E000CDE90B348DF81B2007230DF11B02089255
:1027F00009948DF83430836802229D6808A95C230F
:10280000A8479DF81A30054608B9B12B0ED0CDE97E
:102810000353174B02930023CDE9003315490122DE
:1028200018460DF09DFC00200FB0F0BD73681868CD
:1028300041F21003ADF81C3007AB08930223099353
:102840008DF82830836822469F6808A95C23B84722
:1028500058B1094B0390CDE90153064900952B4629
:10286000224628460DF07CFCDDE734722046DBE78B
:10287000F32B01081C200108222C0108024AC0E9A0
:102880000021002202727047A82101081FB5436889
:10289000044658680EF0A2FF0346207238B9054A74
:1028A00005490090CDE9010201220DF070FC207A6B
:1028B00004B010BD582C0108CC1F01082DE9F041CF
:1028C000057A8CB00E463DB3436858680DF113038A
:1028D00006930123079305AB0024099302270723DE
:1028E000ADF814408DF813408DF820400A978DF80C
:1028F0002C3083683A46D3F8088006A94023C047A5
:1029000078B1104B0390CDE901430F490094234661
:102910003A4620460DF03BFC002528460CB0BDE8A9
:10292000F081BDF8140040BA80B2FEF761FA0749A1
:10293000FDF726FD0649FDF723FD0649FDF720FDBD
:102940003060EAE7762C0108CC1F01086F12833A49
:102950004DE34D3A00606A47024AC0E90021002277
:1029600002727047C02101087FB50BAB059303933A
:10297000054B02930023CDE900330322184601F0F2
:1029800097FD07B05DF804FB9A2C010810B5017B98
:10299000044681F001018AB001730068FFF788FEE8
:1029A000A368069301221344A36006A908A807920E
:1029B0000DF026FD6068036808AADC684FF400711A
:1029C0000823A0479DF81C300493069B0393064BF5
:1029D00002930023CDE90033044903221846FFF790
:1029E000C3FF0AB010BD00BF9A2C010834200108B3
:1029F00030B58DB0C3680993044601330D46089184
:102A0000C36008A90AA80DF0F6FC606803680AAA6A
:102A1000DC6840F201310823A047099B0693284651
:102A2000FDF7C6FE064B02930023CDE90401CDE974
:102A300000330449032218460DF0C6FB0DB030BD2B
:102A4000BF2C01083C20010830B58DB08368099384
:102A5000044601330D460891836008A90AA80DF0C9
:102A6000C5FC606803680AAADC684FF4407108235B
:102A7000A047099B06932846FDF79AFE064B029352
:102A80000023CDE90401CDE90033044903221846AF
:102A90000DF09AFB0DB030BDE22C01083C2001087E
:102AA000024AC0E90021002202727047F0210108A9
:102AB00070B5037A86B004460E46A3B100250D22F8
:102AC000294602A8019509F095F83046FEF7E8F985
:102AD000064A0346112101A809F0FCF801AA29467B
:102AE00020460DF05AFC06B070BD00BF1B2D01083A
:102AF00030B5037A87B004460D469BB100210D2204
:102B000002A8019109F076F82846FEF7C9F9064AAD
:102B10000346112101A809F0DDF801AA0121204690
:102B20000DF03BFC07B030BD2B2D0108014A0121FF
:102B30000DF033BC382D0108014A01210DF02DBCE8
:102B4000482D010810B5064A044600210DF025FC69
:102B50002046044ABDE8104001210DF01EBC00BF14
:102B6000582D0108692D010830B540680D4689B01F
:102B700011461A46B0B1A9B140F2FF730693002482
:102B800005AB0794059503F041F900280DDA084BD1
:102B90000390CDE9014307490094234601222046D2
:102BA0000DF015FC002009B030BD0120FBE700BF8F
:102BB000862D010824200108F0B5476897B00E461D
:102BC00015461C462FB322B3082B22D844220021DD
:102BD00005A809F00FF82246294606A804968DF8A4
:102BE0001440FEF725FA0024CDE900444FF47A7230
:102BF000002304A9384603F0A3F868B1074B0390FB
:102C0000CDE90143064900942346022220460DF0F7
:102C1000DEFB002017B0F0BD0120FBE7A32D01086B
:102C2000242001087FB50646406868B9194B029315
:102C30000023CDE900331849012218460DF0C7FBE7
:102C40000025284604B070BD0EF0C8FD05460028DA
:102C5000ECD0706883680421DB689847044658B15B
:102C60000E4B02930023CDE9003303900A49012261
:102C700018460DF0ACFBE3E7706883685B68984723
:102C80000028DED0064B0390CDE901430094234693
:102C9000ECE700BFB72D010824200108CC2D010866
:102CA000E42D0108014AC0E90021704718220108FB
:102CB000B2F5802F2DE9F0410ED33C493C4A3D4806
:102CC00040F2EB130DF08CFC3B480DF089FC40F218
:102CD000EB1137480DF07BFC042A0CD83749344AF5
:102CE00034484FF4F9730DF07BFC35480DF078FC57
:102CF0004FF4F971EDE7043ACD1D8E1825F0070564
:102D000026F00706761B172E4FEAD6070CD82D495A
:102D1000274A284840F2FB130DF062FC28480DF0CA
:102D20005FFC40F2FB11D4E7B7FA87F4C4F120024C
:102D3000C4F12404A4000734E408631C4FF0000825
:102D4000BB420560AF60C5F80C800CD91E49184A1B
:102D500018484FF403730DF043FC19480DF040FC84
:102D60004FF40371B5E74146920005F1100008F0F9
:102D700041FF630043F001036B8005EBC4023B1B82
:102D80005900A5F800805180AA1925F83440A2F80E
:102D90000280AB5305EBC70321465A8842F001027B
:102DA0005A802846BDE8F0410DF039BBDD2E010800
:102DB0000F2E0108C42A0108F32E01080A2F01086A
:102DC0002B2F0108442F01086D2F01082DE9F04F2A
:102DD00091B08407009302F004030293C2F3C2038C
:102DE00003F10103DDF86880039205460E46059362
:102DF00040F0F581041D30B1072909D86FF01B00A0
:102E000011B0BDE8F08F01F00706341DC6F10806C9
:102E1000009B4FF00009013B4FF0040B0193CDF8EC
:102E200010904F464B464FF0FF32DA460DB10099F5
:102E300021600598002800F3D780984800998142C6
:102E400003D397488142C0F0CF800399A4EB050ECD
:102E500089074FEA9E0040F1E2804FF0000CCCE081
:102E60007A285AD84B280CD8472856D829282AD847
:102E7000252851D051D8202877D0233843424341C8
:102E800073E04C382E2848D8DFE800F06F474747FA
:102E900047474747474747474947474747474747C0
:102EA00047594749495959596F496C476F4718491C
:102EB000184747807D49474749477D000020002348
:102EC0004FF0040B39E02A38C0B2012101FA00F0BA
:102ED00010EA0E0F49D110F0625C30D110EA010304
:102EE00043D06046013C5C44B4FBFBF40BFB04F4B0
:102EF000002D60D0AAEB050CA444B4453FF67EAF8C
:102F000000286AD1BAF1040F45D158F8040B2060AB
:102F100004344FF0040A28E0013A002325E0019B25
:102F200013F8013C6C2B33D1019B13F8023C0020B9
:102F30006C2B0346C4D14FF0080BDA46D2E708F1F8
:102F4000070828F007080734F8E802AB24F0070464
:102F500035B106982044B0423FF650AFC4E900AB0B
:102F6000083400234FF0080BDA46019911F8010FDD
:102F70000191002800F0BB80002B7FF471AF252861
:102F8000F3D1013201234FF0040BEDE7184696E729
:102F900000200346A6E7BAF1080F40F09A8008F136
:102FA000070828F00708F8E80201C4E9000108341E
:102FB0004FF0080AD9E780B9BAF1040F02D108F13D
:102FC0000408A5E7BAF1080F40F0838008F107086C
:102FD00028F0070808F10808E9E705990139059183
:102FE00058F8041B009121E7039988074AD5A4EB00
:102FF000050E4FEA9E004FF0010CBEF5007F1ED378
:103000002849294A29484FF41F730DF0E9FA284846
:103010000DF0E6FA4FF41F7123480DF0D8FA0F2F88
:103020000FD8002D48D007F140010DEB010C0CF832
:10303000200C0CF8102C04980130049021E00F2F84
:103040000CD91849184A194840F281230DF0C8FAE2
:1030500018480DF0C5FA40F28121DDE7CDB107F146
:1030600040010DEB010EC0B20EF8200C0EF8102C32
:10307000BCF1000FDFD060F07F000EF8200C09F1EA
:1030800001090137C5F10801043406914FF6DA7ED3
:103090006BE7BCF1000F0FD00136F2E7401A0108D0
:1030A0008C5501084F2B0108982F0108C42A0108EC
:1030B000C62F0108E72F0108029802360028E0D148
:1030C0000098CDE90632FDF79BF8DDE906320644AB
:1030D000D7E7444A4449454840F2C6230DF080FAF8
:1030E000514643480DF07CFA40F2C62194E7631B39
:1030F000B3F5806F0CD33C493A4A3C4840F2D223A6
:103100000DF06EFA3B480DF06BFA40F2D22183E7E6
:103110001DB9A6F10804E01872E6029A28609B081F
:103120002B709DF81030C2B1EB7085F80290B9F1A8
:10313000000F05D008A80022C5F1010C97420ED15E
:10314000C5F101030DF120084FF0000A01930DF1C4
:10315000300B574512D1601B52E66B70E5E710F853
:10316000013B190608D504EB0C0EB64503F07F03AE
:103170003FF644AE04F8013B0132DFE7B9F1000F3E
:1031800003D098F90020002A17DB029BD3B11AF86C
:103190000B2004F8012B0022019B98182044B04218
:1031A0003FF62CAE98F8000004F8010B009903924A
:1031B0002046FDF73DFF039A14440AF1010A08F185
:1031C0000108C6E798F8002055F822300093029BCA
:1031D00045F822300098FDF713F8421CDCE76FF049
:1031E0000D000DE6982F01084F2B0108C42A010895
:1031F0000130010816300108014B1860704700BF0C
:103200009806002030B587B00025CDE903010446BB
:10321000009503A90548059500F06EF8DDE9043036
:103220009842B8BF255407B030BD00BFD304010891
:10323000F0B5094E016802460A2700200B4601310D
:103240001C78355D6D0701D41360F0BD07FB0043AA
:10325000A3F13000F2E700BFC12601082DE9F84FC5
:1032600015469A46D378234A12F803B06F2B81464D
:103270000F460BF0030B2BD026D8582B0CBF102673
:103280000A26DDF828803246002348463946FDF7F5
:103290002DFE092A08F1FF38D4B21ED83034B145CA
:1032A000E4B277F1000788F8004001D3D04511D887
:1032B0002B789B0605D5082E15D1AB7843F0080373
:1032C000AB704046BDE8F88F03F0F703702BD5E7ED
:1032D0000826D6E781460F46D5E7BBF1010F0CBFA4
:1032E00037345734DBE7102EEBD1AB7843F01003C3
:1032F000E6E700BFC12601082DE9F04F9FB08246E6
:10330000039117461C460025387810B9284600F06E
:10331000A0BD252809D00399D0470028C0F299857F
:103320007B1C01350593059FEEE71822002110A8AC
:1033300008F060FC7B78252B00F0BA800023791C14
:1033400098469E469C4618460E4611F8012B2B2A9D
:1033500000F0E18000F2D880202A00F0DF80232AEC
:1033600000F0DF802BB19DF8483043F040038DF82A
:103370004830B8F1000F05D09DF8483043F02003E5
:103380008DF84830BEF1000F05D09DF8483043F06D
:1033900010038DF84830BCF1000F05D09DF848307F
:1033A00043F008038DF8483028B19DF8483043F0C9
:1033B00004038DF848309DF8483003F04401442957
:1033C00003D16FF386138DF848309DF848300E9680
:1033D00043F080032A2A8DF8483040F0A7809DF8FA
:1033E000493043F001038DF84930731C1A782E2AB6
:1033F0009DF849200CBF0121002161F341028DF8A5
:1034000049200CD15A1C0E925A782A2A40F09E80EC
:103410009DF8492042F004028DF8492002331A78C1
:103420006C2A00F0BF8000F2A180682A00F0A7801B
:103430006A2A00F0C0804C2A00F0C58013F8012BE6
:103440000593782A8DF84B2000F205816D2A00F251
:10345000C780692A00F2FF80572A00F2DE80412AE5
:1034600004D0A2F14503022B00F2F5809DF84A300A
:1034700002F0DF020421A2F1410661F3020372426D
:103480009DF849108DF84A30724162F3C7110A065F
:103490008DF84910CBB200F11D8103F07802182A93
:1034A00040F007816FF3C6038DF849300023F6E042
:1034B0008DF84B30BB1C05939DF849209DF84A3090
:1034C000D10703F0070040F1078154F8041B049171
:1034D000002908DA9DF8481041F004018DF84810E1
:1034E000049949420491560740F1FE8054F8046B58
:1034F000002E80F2FD809DF849206FF341028DF887
:1035000049204FF0FF36F3E02D2A0DD0302A7FF40A
:1035100029AF012318E74FF0010C15E74FF0010E1A
:1035200012E74FF001080FE701200DE70EA8FFF7A3
:103530007FFE0E9BB3423FF459AF9DF84820139095
:10354000C00F60F341028DF848204FE70EA8FFF747
:103550006FFE9DF848301490C3F3400242EAD072E7
:1035600062F341038DF848300E9B58E7742A26D049
:103570007A2A7FF463AF9DF8492006210CE05A783F
:10358000682A9DF8492006D1012161F3C6028DF811
:103590004920023352E7022161F3C6028DF8492027
:1035A00001334BE75A786C2A9DF8492001D1042158
:1035B000EBE70321F0E79DF849200521ECE79DF8B2
:1035C00049200721E8E7BDF8482022F4F04222F024
:1035D000020242F4804242F00202ADF84820DFE7E6
:1035E0006E3AD3B201229A4040F282431A429DF8C9
:1035F000493037D112F0240F5FD1D1072BD59DF878
:103600004A2003F07803A3F14000032161F3020292
:1036100043428DF84A20434141E0A2F15801C9B22A
:10362000012000FA01F111F4624F7FF41FAF40F660
:10363000010319429DF849301AD111F4043F0AD010
:103640009DF84A2060F3020203F07803402B8DF8C6
:103650004A207FF42BAF9DF8483043F001038DF8EA
:10366000483023E79DF84A20022161F30202EBE78C
:103670009DF84A10022003F0780360F30201402B0A
:103680008DF84A1002BF9DF8481041F001018DF8F5
:103690004810632A7FF40AAF003B18BF01239DF84E
:1036A0004820C2F340010B4363F341028DF84820E8
:1036B00002E713F0380FCED1F8E69DF84A20032137
:1036C00013F0780F61F302028DF84A2014BF012332
:1036D0000023E4E70123E2E79DF948100029B4BF85
:1036E00013994FF0FF31FDE691077FF50AAF149E65
:1036F0009DF8491000220428CDE9132207D18A073A
:1037000005D49DF94920002AACBF06260D2603F0FA
:103710000703012BC1F3C30132D1CB1E042B04D804
:10372000DFE803F0204545202000236801294FEA07
:10373000E372CDE910321BD19DF94030DA17CDE9A3
:10374000103204349DF8483006939B074FD0059BF8
:1037500003993A4650460CF023FF0028C0F27983C3
:103760000544E0E554F8043BDA17CDE91032E9E707
:103770000229E6D11AB243F3C033CDE91023E0E7C2
:10378000022B24D1CB1E042B04D8DFE803F0181041
:1037900010181800012954F8043B4FF0000214D00F
:1037A0000229CDE91032CDD19BB21093CAE707347C
:1037B00024F00704F4E80223CDE91023C2E754F80B
:1037C000043B109300231193BCE7DBB2CDE7042B3D
:1037D00008D1073424F00704D4E900230834CDE9E4
:1037E0001023AFE7032BADD154F8043BDDE79DF880
:1037F0004B80B8F1780F3FF696ADB8F1570F5CD813
:10380000B8F1250F00F0A480B8F1240F7FF68BAD3E
:10381000B8F1410F04D0A8F14503022B3FF683AD68
:10382000DDE91023002BC0F24D810699080700F155
:103830004C81C1F300194FEA4919C3F30A51C3F38C
:103840001303002940F0448152EA030014BF4FF0F3
:10385000010C4FF0000CD80240EA5250D702CDE9DB
:103860000C70B8F1460F47EA010740EAE17008BF63
:103870004FF06608384300F0B881BCF1000F10D05B
:103880001B0343EA125317033A4618464FF0000C45
:10389000002880F25681BCF1000F40F05981CDE93B
:1038A0000C730D9B43F00043A1F2FE3B0D930021EE
:1038B000DDE90C230F46052060E1A8F15803202B19
:1038C0003FF631AD01A252F823F000BF973A00084D
:1038D0002733000827330008273300082733000860
:1038E0002733000827330008273300082733000850
:1038F0002138000827330008433A0008573A0008E7
:103900002138000821380008213800082733000832
:10391000573A0008273300082733000827330008E8
:10392000273300089D3A0008973A0008E739000855
:1039300027330008273300086139000827330008BF
:10394000973A00082733000827330008973A000801
:1039500003994046D0470028C0F27B820135E2E45B
:10396000002E109F3BDB3146384608F02BFA002F23
:103970003FF4D9AC3E18F31B4FF000099DF84A20E4
:1039800012F01001069100F05982023312F0400249
:10399000DDF84C80089218BF149ACDF81C8043447F
:1039A00018BF9B18049A002A40F36382D31A9DF82B
:1039B000482004935007C2F3800B00F15A8251064D
:1039C00040F14A82B9F1000F07D003994846D04729
:1039D0000028C0F23E820135D94630223DE2384609
:1039E000FCF70EFCC6E71098002800F022820DF1CB
:1039F0007503009312AA17AB0021FFF72FFCBDF847
:103A00004A3003F0EF0343F4F04343F0100307465A
:103A1000ADF84A304FF00009002E0CDB9DF848202D
:103A20000DF17503DB1B6FF386129E428DF8482063
:103A300001D9F31A1393002F3FF475AC0DF17506FD
:103A40006DE0109B8DF85C304FF000090DF15D06C4
:103A500017AF012392E7069B1F0758BFC3F3001956
:103A6000DDE9102354BF4FEA49194FF02B09002B11
:103A700006DA524263EB4303CDE910234FF02D09E0
:103A80000DF175030093DDE9100117AB12AAFFF7E2
:103A9000E5FB0746C0E74FF00009F1E7109B072957
:103AA0003FF641ACDFE801F00C04060C08080C0CF2
:103AB0001D7038E41D8036E4EA17C3E9005232E491
:103AC0001D6030E44FF02D09B7E64FF02B09B4E646
:103AD00040F2FF70814231D108F10108A1495FFA3B
:103AE00088F8134311F8081001F003011ED10129D1
:103AF0000BBF492369234E216E210CBF462266224B
:103B00008DF85C309DF848308DF85D106FF38613AA
:103B10008DF85E208DF848300DF15F0617AFF31B6E
:103B2000B9F1000F3FF42AAF013327E7012915BF90
:103B30006E234E23612141211A46E1E74FF0000C2C
:103B400089E6921801F1FF3140414FF0010C9FE6E8
:103B5000CDE90C20A5E6520842EAC3725B08B3F136
:103B6000333F59460BF1010BF5D200FB03FCA2FBDE
:103B7000002301F1020B6344013F01211BF1020FFD
:103B8000E9DB09B1CDE90C23BBF1000FDDE90C3213
:103B90002EDCCBF10401A1F120000BF11C0B02FA89
:103BA0000BFB22FA00F0CA40CB40079208F0DF027C
:103BB00043EA0B03472A43EA00037ED1F91C01DBE9
:103BC000BE422BDAA8F10208002E5FFA88F87DDDEC
:103BD0009DF84820920606F1FF3677D4B6F1000B27
:103BE00018BF4FF0010B721C27E04FF0000B5EE690
:103BF000023342F100020CA8CDE90C320CF0A1FC1A
:103C0000DDE90C320BF1FF3B0137DB185241002A92
:103C10000BF1FF3BF9DACDE90C32B5E79DF848200E
:103C20009006A6EB07064ED4B6F1000B18BF4FF076
:103C3000010BF2194FF066084BD4102AA8BF1022CE
:103C400010200B904FF000610020CDE90E01DDE95E
:103C50000E01002A3FD1079A1B1842EB0101B1F176
:103C6000805F47D2CDE90C31069BB8F1660F03F0B7
:103C7000200240F0BE80002F47DC30238DF85C30FE
:103C8000002A71D1002E40F3B7812E238DF85D30CC
:103C900087B17B42B342A8BF33469DF84A201393B5
:103CA000002BA6EB0306D4BF0023012363F34512C8
:103CB0008DF84A200DF15E0340E0B8F1660F4FF039
:103CC000000BB6D08FE74FF0000BB2E74FF0000BC0
:103CD00089E70022B4E7400840EAC1704908CDE90D
:103CE0000E010EA8CDE908230CF02BFC089A099BC5
:103CF000013AACE75B0843EAC1730CA84908CDE977
:103D00000C3101370CF01DFCAEE717AB0B99002905
:103D10000BDD0BA90CA8CDE906320CF02AFC069BA2
:103D2000079A03F8010B013FF0D11397AAB9002EAF
:103D300040F360812E2103F8011B0027002E1CDDBB
:103D40000B9A002A19DD0BA90CA806930CF011FCA4
:103D5000069B013E03F8010BF0E72E2203F8012B2E
:103D6000EBE700BFC02601082E238DF85D30002F41
:103D7000A0D0002E8DDC0DF15E03BBF1000F4CD105
:103D800014961E4608F0DF03452B21D1002FBABF41
:103D90007F422D232B23632FC8BF64227370C2BFC1
:103DA000B7FBF2F303F1300102FB13774FF00A0285
:103DB00086F80080CABFB17002360336B7FBF2F353
:103DC00003F1300102FB137330333170737002362C
:103DD000139B002B2BDC149B002BD4BF002301234F
:103DE0009DF84A2063F3861200238DF84A20337031
:103DF00094E60BA90CA806920CF0BBFB069A8DF872
:103E00005C00302818BF07F1FF3712B9002E40F3CD
:103E1000F3802E238DF85D304CE71E46013B16F8EB
:103E2000012C302AF9D02E2A08BF1E46AAE701230A
:103E3000D6E7734E8146771F05239FE5110748BFDC
:103E40000133A3E5104609920399D0470028099A47
:103E500005DA1FB0BDE8F08F2022DDF810B059461A
:103E600000290BF1FF3BEDDC049BCDF810B02B4497
:103E70005D1AB9F1000F05D003994846D0470028D4
:103E8000E7DB0135089B002B79D09DF94930002BE9
:103E900029DBDFF870913B46187819F800205207AB
:103EA0009B4603F101033FD49DF84A30EF1B98066F
:103EB0005F4407D44246002A08F1FF383BDC079BE9
:103EC0003B449F1A9BF800002E280AD10399D04743
:103ED0000028BEDBB8F1000F07F1010731DC0BF160
:103EE000010B5D4638E0B94699F800007028C846D5
:103EF00009F1010913D1EF1B149D47443D44EB1B0D
:103F0000002B34DC03993346424650460CF048FB04
:103F100000289EDB3844049E0546064465E003996C
:103F2000D0470028E0DA94E706930399D0470028A9
:103F3000069BB1DA8DE703993020D0470028B9DA23
:103F400087E703993020D04708F1FF38C0E703998D
:103F5000D0470028FFF67DAF287819F800305907C0
:103F6000A84605F10105F2D4A7EB0B07C4E70399B6
:103F70003020D0470028FFF66CAF0137BFE79DF82F
:103F80004A30DA0601D41B0706D503993020D04702
:103F90000028FFF65EAF0135069B3BB103999DF803
:103FA0004B00D0470028FFF654AF0135A84406E087
:103FB00003993020D0470028FFF64BAF0135A8EB1E
:103FC0000503002BF4DC039933463A4650460CF0C7
:103FD000E7FA0028FFF63DAF28449CE7039920202C
:103FE000D0470028FFF635AF0135731B002BF5DCF9
:103FF000FFF799B91746C0E60DF15D03BDE600BFB6
:1040000043300108C1260108034A536823F0020324
:1040100053600020704700BF002004E0134B1A6873
:1040200042F400721A601A6842F480621A601A68D8
:1040300042F480721A600E4B0E4A1A600E4A5368A0
:1040400043F0010353600D4B9A6D42F080529A6524
:104050009B6D0B4A82B003F080530193019B9368E0
:10406000002043F48043936002B070470020024078
:10407000D40600200024F400002004E000100240D8
:10408000007000401FB5D0E90123C168029164218E
:104090005943B1FBF2F1CDE900210446016806481D
:1040A000D21A0CF02AFAD4E90623044804B0BDE879
:1040B00010400CF022BA00BF4430010884300108DF
:1040C000F0B595B0D0F8AC6005460F460DF00FFC8A
:1040D000044608B1037833B91A4A2B460B2101A8CC
:1040E0000CF018FA01AC694628460DF010FC0246A7
:1040F00028B1154821460CF000FA00230093009BDC
:10410000CDE90A460EA9F61A28460C960DF006FCD3
:1041100080B904A80DF00CFC78B90E980F9D6424AA
:10412000A0FB0401DDE9042304FB0511FCF7DEFE1E
:104130000D9002E004A80DF0FBFB0AA8B84715B0EB
:10414000F0BD00BFA9300108AC3001087FB50146C1
:104150000E4806F0FBFD05AA0D484FF400610DF076
:10416000CAFB024670B9059B6421C3F50060414358
:10417000C90A02914FF40061CDE9000105490648E2
:104180000CF0BBF907B05DF804FB00BFC1400008AC
:1041900080240020D4300108D830010808B5044834
:1041A0000CF0ABF9BDE808400248FFF7CFBF00BFF5
:1041B0000E3101088540000838B5044C0025FFF792
:1041C000EDFF2046294606F049FBF8E7C027090025
:1041D0002DE9F84FDFF8F8A03E4FAAEB07038F2B2D
:1041E000814688460BD93C493C4A3D4840F23F1342
:1041F0000CF0F6F940F23F1138480CF0E8F9394874
:104200000CF006FA0646002834D13C4605464FF02D
:10421000010B544527D93449304A31484FF4A6732D
:104220000CF0DEF931480CF0DBF94FF4A671E3E74E
:10423000237B6BB12368DB680BB12046984723686A
:104240001B6943B9636804221968204600F00AF923
:1042500001361034DDE7204698470028F2D00BFAEB
:1042600006F31D43F4E7E3D3B9F1000F02D04FF09A
:10427000010A0DB9BDE8F88FA94695FAA5F4B4FA7C
:1042800084F40AFA04F3260107EB04146FEA030B23
:1042900025EA0305237B5BB1BB591B699BB93E44EF
:1042A000042273682046196809EA0B0900F0DAF85D
:1042B000002DE2D1B8F1000F03D06420002106F0F8
:1042C000CDFA4D46D5E7204698470028F0D1E6E7DD
:1042D00074200108642001085C3101082F310108B5
:1042E000C42A0108500F00208C310108AD310108AB
:1042F000014B53F8200070472C22010808B50346F3
:1043000008462BB1044A136000F006FB002008BDEC
:104310006FF01500FBE700BF9C060020054A064829
:1043200000231370054A1360054A4FF47A71136035
:10433000FFF7E4BF6C13002001060108480F0020BE
:104340004C0F002070B5134D297809BB0120FFF7F1
:104350003FFF114C114EB44217D91149114A12486E
:104360004FF4DC730CF03CF910480CF039F90D48AF
:104370004FF4DC710CF02BF963685B791BB1236897
:1043800020469B6898471034E5E7F5D301232B704E
:1043900070BD00BF6C130020642001087420010868
:1043A0008C3101082F310108C42A0108AD31010800
:1043B00010B5044608480CF02BF95CB1BFF35B8FD5
:1043C000064B53E8001F013943E80012002AF8D1D8
:1043D000BFF35B8F10BD00BF480F00204C0F0020C3
:1043E00070B5124B124C1B68124E05469847A860D8
:1043F000B44218D91049114A114840F2F3130CF095
:10440000EFF810480CF0ECF80C4840F2F3110CF007
:10441000DEF863685B7923B1236829461B68204670
:1044200098471034E4E7F4D370BD00BF9C06002029
:1044300064200108742001088C3101082F31010823
:10444000C42A0108AD310108044A054B9B1AB1EB9F
:10445000D30F34BF52F8310000207047AC1F010861
:10446000642001080E4BC31A1B11013310B5DBB2D7
:1044700048B90C490C480D4ADF230CF0B1F80B4841
:10448000DF210CF0A4F84468237143689A714368F3
:104490001960436801225A71BDE810400CF0DAB887
:1044A0006420010850320108C42A010818320108AA
:1044B0002DE9F04F87B004AFD7E90EA93D6B044654
:1044C0000E4693469846BAF1000F2BD0C7F80490D9
:1044D000CDF8009010217A6B53460020FEF776FC51
:1044E000011E0BDA2849294A294840F265130CF0CD
:1044F00077F840F2651125480CF069F8B1F5006FC6
:1045000011DB40F2FF730393224B02930023CDE9AA
:1045100000332149022218460CF0B8F80C37BD468A
:10452000BDE8F08F514604F007040BF0070BE400E0
:1045300044EA8B1444EA412444EA055417350D44F7
:1045400025F00705ADEB050D04ADBAF1000F13D052
:10455000CDF800907A6B534605F11000FEF736FC5B
:10456000002809DA0849094A094840F285130CF085
:1045700037F840F28511BEE74346224631462846C9
:104580000CF06BF8CAE700BF9C32010870320108DA
:10459000C42A0108A6320108F41F0108406820B1AE
:1045A000034BC01A40F3CF0070474FF0FF30704705
:1045B000AC1F01080EB403B503AB014653F8042B3E
:1045C000044801930CF09CF802B05DF804EB03B0D2
:1045D000704700BFAD060108CA0605D48B064CBF64
:1045E00002490349FFF7E6BF704700BFFE4E0108CE
:1045F000DE3201082DE9F04F89B09A46149B0693EC
:104600009DF84CB0159B0593169B179E049304468A
:104610000D469046BBF1000F00F0AD80BBF1040FDA
:104620000BD9A449A44AA54840F262230BF0D8FF55
:1046300040F26221A0480BF0CAFF06F48073079392
:104640000CF009F806F00209024600283FD09C4908
:104650002046FFF7AFFF0746B9F1000F08D016F06C
:10466000440F36D197492A462046FFF7A3FF074457
:1046700006F0010353B1944B944953F82B20944B0B
:104680002046002A08BF1A46FFF794FF06F48073FD
:10469000002B4AD006F00803002B64D1B8F1000FBC
:1046A00067D08C4942462046FFF784FF0546069BAB
:1046B0003D44002B6ED1049B002B40F08380F30718
:1046C00000F1F18031462046FFF786FFE5E007461E
:1046D000C2E7814B18680028C9D0804B4FF47A7923
:1046E0001B68B5FBF3F54FF46161B5FBF0F300FB1C
:1046F000135509FB05F54FF03C0CB3FBF1F201FB40
:104700001231B5FBF0FEB1FBFCF300FB1E550CFBB8
:10471000131109FB05F50091B5FBF0F57049CDE9E2
:1047200001E52046FFF746FFA1E706F00803EBB1DD
:104730006C4B6D4953F82B202046FFF73BFF054695
:10474000B8F1000F05D0634942462046FFF732FF1B
:104750000544BAF1000FAAD0644952462046FFF73B
:1047600029FF0544A3E74FF0000AE1E706F008053A
:10477000E6E745469BE7BAF1010F069B06D1DBB998
:10478000049B002B00F0898000251BE0002BF7D054
:10479000574812E05748069B574922460BF066FEE1
:1047A00000280CDA5549444A44484FF42F730BF063
:1047B00017FF4FF42F713DE74E485D46EBE7049B32
:1047C000002B66D0DFF83881DFF83891049F31463E
:1047D000102F204628BF1027FFF7FEFE4FF0000ADB
:1047E000554543DC059B49461A782046FFF7E2FE13
:1047F0004FF0010A1AF0070F03D141462046FFF798
:10480000D9FE574539D9059B494613F80A20204659
:10481000FFF7D0FE0AF1010ABAF1100FEAD13A49C6
:1048200020464FF0000AFFF7C5FE5246059B9A5CF2
:10483000364B995C11F0970F08BF2E223449204661
:10484000FFF7B8FE0AF1010ABAF1100F1AD01AF0F8
:10485000070F03D141462046FFF7ACFE57455246AD
:10486000E4D841462046FFF7A5FEEBE74146204647
:10487000FFF7A0FE0AF1010AB2E726492046FFF73A
:1048800099FEC7E7059B3B440593049BDB1B049300
:104890009CD1BBF1000F7FF412AF204609B0BDE8F8
:1048A000F04F0BF034BF0A4A08492046FFF782FE5A
:1048B00008E700BF15330108E6320108C42A0108E1
:1048C00021330108253301083C2201084A3301083D
:1048D000E13201084D330108580F0020540F002029
:1048E0002E330108502201085133010857330108C3
:1048F000C9060108AD060108010701085C3301087B
:10490000782D0108653301086B330108C1260108C1
:104910006D330108762D0108074A002101239042DA
:1049200006D8064A01B901231360054B1860704789
:1049300040085B000121F2E740420F00540F0020C5
:10494000580F0020F8B5074F0D4604464618B442EC
:1049500001D12846F8BD14F8011BBB6801485B680B
:104960009847F4E7C81B010810B543681C6809485C
:104970000CF034FF48B908490848094A99230BF05C
:104980002FFE074899210BF022FE23685B685C60CC
:1049900010BD00BFC81B0108CE330108C42A01089E
:1049A00090330108014B03600020704798220108F2
:1049B00070B5064686B00D46002938D08B68059341
:1049C0004B6804930B6803930024244B24490293FF
:1049D000012223462046CDE900440BF0F7FE6B6927
:1049E00005932B690493EB6803931E4B1C490094B9
:1049F000CDE901430122234620460BF0E7FEEB6997
:104A00000393194B16490094CDE901430122234633
:104A100020460BF0DBFEAB690393144B1049009466
:104A2000CDE901430122234620460BF0CFFE012EA3
:104A30000DD1EFF30583103B03930D4B029300233D
:104A4000CDE900330649324618460BF0BFFE294631
:104A5000304606B0BDE8704003F0FABF02340108EA
:104A60001420010831340108603401086F34010852
:104A70009D34010808B5034B1B689847BDE8084002
:104A800000F006B8A806002030BFFFF7FDBF00BF4A
:104A9000074A936893F90E10002907DBD269934205
:104AA0001FBF044A536843F080535360704700BFF0
:104AB000880C002000ED00E0F0B585B00024434BE9
:104AC0000293CDE90044234607460E4601224049A1
:104AD00020460BF08FFE3F4B9B6ADB0465D53E4BB7
:104AE0003B490094CDE901432046234601220BF0C7
:104AF00081FE1720374B9B6A1D050AD5374B029361
:104B000000231846CDE90033314901220BF072FE33
:104B10001820304DAB6A9C051FD50024304B029302
:104B2000012223462046CDE9004429490BF062FECC
:104B3000AB6BAA6A10040FD503932A4B2449009447
:104B4000CDE901430122234620460BF053FE1FB15D
:104B5000AB6A23F40043AB6219201E4B9B6A5905D4
:104B60000AD5214B029300231846CDE9003318499A
:104B700001220BF03FFE1A20164A936A13F4807349
:104B800015D01A4B029300231846CDE90033104983
:104B900001220BF02FFE1B200E4A936A43F47F4341
:104BA00093620023337005B0F0BD1620A2E7926A2D
:104BB0009204F1D50E4A06490093CDE90132184618
:104BC00001220BF017FE1C20E6E700BFB0340108FD
:104BD0001420010800ED00E0C6340108D7340108B4
:104BE000EA34010803350108183501083335010896
:104BF0004B3501081FB50024374B02930122234691
:104C0000CDE90044354920460BF0F4FD344B9B6A56
:104C10009A015ED5334B31490094CDE901432046DA
:104C2000234601220BF0E6FD1E202D4B9B6ADB0183
:104C30000AD52D4B029300231846CDE900332749AE
:104C400001220BF0D7FD1F20254B9B6A1C030AD5C0
:104C5000264B029300231846CDE900331F49012259
:104C60000BF0C8FD21201E4B9B6A59030AD5204B2F
:104C7000029300231846CDE90033184901220BF0B6
:104C8000B9FD2220164B9B6A9A030AD5194B029351
:104C900000231846CDE90033104901220BF0AAFD8C
:104CA00023200F4B9B6ADB030AD5134B029300238F
:104CB0001846CDE90033094901220BF09BFD242061
:104CC000074A936A6FEA03436FEA1343936204B09F
:104CD00010BD1D20A9E700BF7A3501081420010886
:104CE00000ED00E092350108A5350108BF35010847
:104CF000DD350108023601081C3601082DE9F043B4
:104D000085B00024564B0293CDE9004423468046EB
:104D1000894620465349164601220BF06BFD524B43
:104D20009B6AD80640D5514B0094CDE901432046FB
:104D300023464C4901220BF05DFD11244A4B9B6A2E
:104D400019070AD54A4B02930023CDE900334549A0
:104D5000012218460BF04EFD1224434DAB6A9A0710
:104D600024D50024434B0293CDE9004423463D491A
:104D7000012220460BF03EFD6F6BAB6A1B0659D536
:104D80003D4B38490397CDE9014300942346012266
:104D900020460BF02FFDB9F1000F03D0AB6A23F0D2
:104DA0008003AB62132403E01024C7E76FF01507FC
:104DB0002D4B9B6AD8070AD5304B02930023CDE9CF
:104DC00000332849012218460BF014FD1424264B09
:104DD0009B6A99060AD52A4B02930023CDE900333A
:104DE0002049012218460BF005FD15241E4DAB6A23
:104DF000DA0602D4AB6A9B070AD56B68180507D59B
:104E00004146384600F0B8FAB8B180F30988022468
:104E1000154B9A6A920642BF5A6A22F400525A62AD
:104E20009A6A42F0FF029A6220460023337005B06E
:104E3000BDE8F0836FF01507B4E7AB6AD906E7D594
:104E40001049114A114840F25D130BF0C9FB10489C
:104E50000BF0C6FB0C4840F25D110BF0B8FB00BF35
:104E6000473601081420010800ED00E05D36010816
:104E7000D734010890360108A8360108BE3601086B
:104E80004B3501080F370108DD360108C42A010837
:104E9000593701082DE9F041894B0446586890B014
:104EA000C0F30806002383F31188BFF36F8F02F06D
:104EB0007F45B5F17F4F0CD102F00C05082D17D1BD
:104EC000804A81490093CDE90132184601220BF056
:104ED00091FC7E497E4A7F484FF48B630BF080FB48
:104EE0007D480BF07DFB4FF48B6179480BF06FFB35
:104EF000120746BF0C461D460125002CE9D04FF095
:104F00000008F31E8DF81F80092B00F2BF80DFE838
:104F100003F005B3B796BDBDBDBDBDBB6F4B6A49C0
:104F2000674FCDF80080CDE90183002301221846A8
:104F30000BF060FC8DF81F80FE6A16F0020605D0AB
:104F4000674BCDF80080CDE9018306E0FB6A002BBA
:104F50000BDA644B0096CDE9016300235A49012224
:104F600018460BF047FC002230E0FB6A5B0076D568
:104F70005D4B55490096CDE9016301223346304629
:104F80000BF038FC7B69A26943F480737B61BFF34B
:104F90004F8FBFF36F8F7B6932F8022C23F480733D
:104FA0007B61BFF34F8FBFF36F8F4DF602739A4251
:104FB0002CD1236803934D4B43490096CDE90163FF
:104FC0000122334630460BF015FC22689DF81F3055
:104FD000CBB908AE04F1200720686168334603C3EB
:104FE0000834BC421E46F7D10F9B002D62D0C3F39C
:104FF000080121B96FEA53236FEA43230F9308A9ED
:105000001046FFF7D5FC10B0BDE8F081BB6ADBB2FB
:105010003BB10DF11F0201212046FFF76FFE024652
:10502000D4E7BB6A13F47F4F05D00DF11F010120B7
:10503000FFF742FDF3E7BB6AB3F5803F02D3FFF70A
:10504000D9FDECE72A49224A224840F22A330BF0E4
:10505000C7FA28480BF0C4FA40F22A3145E7244940
:105060001B4A1C4840F22E330BF0BAFA22480BF0D0
:10507000B7FA40F22E3138E70DF11F020021CBE7DD
:105080000DF11F010020D3E71C4B5AE71C4A1D4BB2
:105090000D4910F4F87F18BF1346103ECDE90336D2
:1050A000194B02930023CDE90033012218460BF07F
:1050B000A1FB58E723F4FF7323F001039EE700BF31
:1050C00000ED00E0AA37010814200108D5370108D7
:1050D000DD360108C42A0108E8370108263801082E
:1050E0003D3801085E3801086C3801088B3801082A
:1050F0004F2B0108A7380108CB380108FB380108FD
:10510000913701087C3701081F390108024A5369A9
:1051100043F010035361704700ED00E0EFF30880A7
:10512000EFF3098101B57246FFF7B4FE01BD00BF80
:10513000102080F311880B484FF0AA014FF404624D
:105140000CF087FB07484FF40461401880F309888E
:10515000EFF314800221084380F31488BFF36F8FAC
:1051600000F0CAF840240020084B9B6883420BD112
:10517000EFF3058343B1064B5A6842F080525A6000
:105180005A6A22F400425A6205F0A6BB880C00203D
:1051900000ED00E00A4A93686FF00A01C3F8BC1002
:1051A0000849C3F8B8004B6843F080534B600023B4
:1051B00083F31188BFF36F8F9368D3F8BC007047F7
:1051C000880C002000ED00E010B50446EFF31183D9
:1051D000102383F31288BFF36F8F0A4BD86998604E
:1051E000094B4FF000625A600022D0F8B830C0F886
:1051F000B82083F31188BFF36F8F00F027F92046A2
:1052000010BD00BF880C002000ED00E001B50CF0DF
:1052100083FBBDE801400E498A684FF0400010440E
:10522000EFF3098C80E8F01F74467046FFF7CCFF5F
:10523000A64607498A6802F1400090E8F01F8CF307
:10524000098801B504F0DEFBBDE8014070470000AD
:10525000880C00201EF0040F0CBFEFF30880EFF362
:105260000980816911F8021C0229FFD001B50BF0F9
:10527000BDFA01BD40B2002807DB044A4109012301
:1052800000F01F00834042F82130704700E100E049
:1052900038B54B1C0F2B04460D460FD9114A124945
:1052A000124858230BF09CF9114829460F23224637
:1052B0000BF096F90B4858210BF089F940B2002801
:1052C000ACBF00F160400B4A4FEA0313B8BF00F0D7
:1052D0000F00DBB2AABF00F56140135480F8003321
:1052E00038BD00BF3239010869390108C42A0108F4
:1052F0008439010814ED00E00F4A08B50F4B22F085
:105300007F029A60BFF34F8FBFF36F8FD3F888206F
:1053100022F47002C3F88820EFF3148323F004030F
:1053200083F31488BFF36F8F03F0ACFC05F08AFDA4
:1053300000F062F803F0F8FC0000000800ED00E067
:1053400042F8203C009B42F81C3C0A49019B42F871
:10535000183C029B42F8143C21F001014FF080738D
:1053600042F8043C42F8081C0023203A0266C0F8C8
:10537000B83070472F0501080A4A0346906878B193
:1053800013F1160FD0F8A80005D0A0F140029A4200
:1053900005D8834203D2814228BF002070470020F5
:1053A000704700BF880C002008B50D4B044698607C
:1053B0000E46154604F026FB204600F047F82C4622
:1053C00086F309884FF00000064B984720464FF0BF
:1053D00000014FF000024FF00003034C204700BFD4
:1053E000880C00201D0801082F050108014B102220
:1053F0001A61704700ED00E0044800231021C21834
:105400000133662B82F80013F9D1704700E100E008
:1054100008B5EFF30583064A103B02EBC30152F8CF
:10542000330049688847BDE80840FFF731BB00BF3B
:10543000401C0108024B034A0348012100F098B8C0
:10544000000002200000002098220108D0F8A820C7
:10545000054B403A1A60054A4021C3E9011218463B
:10546000012100F0ABB800BF800F002000000B1539
:105470001FB5144AD2F89030C3F30723013B98427A
:105480000FD9114B029300230390CDE90033184646
:105490000E4901220BF0E6F96FF0150005B05DF83A
:1054A00004FBC2F898000B6823F01F03034343F08A
:1054B0001003C2F89C308B6843F00103C2F8A0309F
:1054C000ECE700BF00ED00E0C83901080C2001083E
:1054D000F0B50E4689B01F4604460025B54212DAE3
:1054E000606838B3BFB1431E18420FD0134B02930C
:1054F0000023CDE9003312490395012218460BF031
:10550000B1F96FF01502104609B0F0BD1F28EDD9B2
:1055100021680B42EAD1236805930BF093F9A36845
:1055200005A90343D0B20793FFF7A2FF10F1160FAE
:10553000E7D0421C01350C34D0E700BFEE3901083A
:105540000C200108044B0522C3F89420BFF34F8FB1
:10555000BFF36F8F704700BF00ED00E0BFF35F8FB8
:10556000024B0022C3F89420704700BF00ED00E01A
:1055700038B50D4D01232A780C46FFF7A9FF287096
:1055800016300FD1094A0A490A484FF4B4730BF098
:1055900027F8094821460BF023F804484FF4B4716A
:1055A0000BF015F838BD00BF6E130020113A01084A
:1055B0004F2B0108C42A0108403A010810B5144ACB
:1055C000002312780C46FFF783FF10F1160F08D066
:1055D000104A0021D2F89030C3F30723984210DB21
:1055E00010BD0D4A0D490E4840F287130AF0F8FF2E
:1055F0000C4821460AF0F4FF074840F287110AF0F0
:10560000E6FFC2F89800C2F8A0100130E2E700BF40
:105610006E13002000ED00E0113A01084F2B010845
:10562000C42A01086C3A01082DE9F04F7B4C7C49F3
:10563000D4F890300D68C3F307239D4285B013D989
:10564000784A7949794840F29F130AF0C9FFD4F8A3
:10565000902077482946C2F307220AF0C1FF40F2A2
:105660009F1170480AF0B3FFFFF778FF49680022E6
:10567000954201F10C012DD16E4C6F4F257068469B
:10568000FFF790F9DFF8B481DFF8B4910646002502
:10569000AE4232D1237861490020D1F89020C2F384
:1056A00007229342C0F2AF80FFF74CFFD1F8903051
:1056B000C3F30723082B00F0AC806249594A5B48CA
:1056C00040F20F230AF08CFF5F480AF089FF40F296
:1056D0000F21C6E7C4F8982051F80C3C23F01F03B3
:1056E000134343F01003C4F89C3051F8043C43F0DA
:1056F0000103C4F8A0300132BAE7009A02EB0513A7
:105700002901D3F80CA00AEA0700B0F5000F60D019
:105710000AD8B0F5001F38D0B0F5800F4ED0B0F5E4
:10572000801F12D00135B3E7B0F1807F5CD0B0F1BB
:10573000007FF7D19868D3F804A052580BF082F894
:10574000CDE901A240F480200BE09868D3F804A0D2
:1057500052580BF077F8CDE901A240F0885040F4A0
:1057600030200390207801A9FFF782FE002846DA56
:105770002D492C4A2D4840F2C9130AF031FF334815
:105780000AF02EFF40F2C9116BE79868D3F804B015
:1057900052580BF057F81AF0010F40EA0800CDE913
:1057A00001B20390DED02A491E4A20486D230AF038
:1057B00017FF28480AF014FF6D2152E79868D3F8C4
:1057C00004A052580BF03EF8CDE901A240EA0900CE
:1057D000C7E79868D3F804A052580BF033F8CDE926
:1057E00001A240F08270BCE79868D3F804A0525838
:1057F0000BF028F8CDE901A240F08870B1E72378DA
:10580000013323708EE7C1F89830C1F8A00001334E
:1058100043E7002005B0BDE8F08F00BF00ED00E0D9
:10582000A4220108113A01084F2B0108C42A0108DB
:10583000993A01086E1300200000F0FF00000811E3
:10584000000002074C3B01089C3B0108223B010879
:10585000CD3A0108F33A010808B50B4BC3F10053E8
:1058600003F50033B3F5005F0CD20849084A094834
:1058700089230AF0B5FE08480AF0B2FE04488921DF
:105880000AF0A5FE002008BD803A0020FC3B01087C
:10589000CC3B0108C42A0108453C0108014B1860B3
:1058A000704700BFB0060020F8B5084F06460D4609
:1058B0000024AC4208DA3B6898470A28305504F1C6
:1058C000010401D00D28F4D12046F8BDAC0600201B
:1058D000F8B50A4F0D46461EC0F10104A3199D42BA
:1058E00001DC2846F8BD73780A2B02D13B680D20F5
:1058F00098473B6816F8010F9847EFE7B00600207D
:1059000010B5074C2368C2180648C0F1005101F5D4
:1059100000318A423ABF2260C0184FF0FF3010BDFC
:105920008C0F0020803A002010B5044658B9114968
:10593000114A124840F28B130AF052FE40F28B11CA
:105940000D480AF044FE142005F088FE206060B97E
:105950000B49094A094840F293130AF041FE0948ED
:105960000AF03EFE40F29311EAE7BDE810400BF06A
:1059700083BF00BFCD3C0108CC3B0108C42A01080D
:10598000CC3C0108083D010808B558B9074908484A
:10599000084A40F2A9130AF023FE064840F2A91172
:1059A0000AF015FEBDE8084005F060BECD3C0108D8
:1059B000C42A0108CC3B010810B558B909490A4866
:1059C0000A4A40F2BB130AF00BFE084840F2BB1132
:1059D0000AF0FDFD4FF0FF32BDE810404FF0FF33FD
:1059E00003F050BACD3C0108C42A0108CC3B0108A1
:1059F00008B558B907490848084A40F2D7130AF0D1
:105A0000EFFD064840F2D7110AF0E1FDBDE808407D
:105A100003F008BBCD3C0108C42A0108CC3B0108B7
:105A200008B505480AF069FD002383F31188BFF328
:105A30006F8F0423184602DF2B3D01082DE9F0414A
:105A40000F4E104F054600244FF001082B7853FAF3
:105A500084F01F280DDC726908FA00F333EA0202B1
:105A600007D1736157F830301BB107EBC0025168A2
:105A700098476A780134E3B29A42E7D2BDE8F081F0
:105A800000040140900F0020044B18440023013310
:105A9000994200F8012BFADC704700BF580800203B
:105AA00010B4064B064902460C6818560123934071
:105AB00023430B6010BCFFF7DDBB00BF580800207C
:105AC000000401401F2806DC034901220B688240C4
